{
    "_format": "hh-sol-artifact-1",
    "contractName": "WavePortal",
    "sourceName": "contracts/WavePortal.sol",
    "abi": [
        {
            "inputs": [],
            "stateMutability": "payable",
            "type": "constructor"
        },
        {
            "anonymous": false,
            "inputs": [
                {
                    "indexed": false,
                    "internalType": "address",
                    "name": "",
                    "type": "address"
                },
                {
                    "indexed": false,
                    "internalType": "uint256",
                    "name": "",
                    "type": "uint256"
                },
                {
                    "indexed": false,
                    "internalType": "string",
                    "name": "",
                    "type": "string"
                }
            ],
            "name": "NewWave",
            "type": "event"
        },
        {
            "inputs": [],
            "name": "getWaves",
            "outputs": [
                {
                    "components": [
                        {
                            "internalType": "address",
                            "name": "waver",
                            "type": "address"
                        },
                        {
                            "internalType": "string",
                            "name": "message",
                            "type": "string"
                        },
                        {
                            "internalType": "uint256",
                            "name": "timestamp",
                            "type": "uint256"
                        }
                    ],
                    "internalType": "struct WavePortal.Wave[]",
                    "name": "",
                    "type": "tuple[]"
                }
            ],
            "stateMutability": "view",
            "type": "function"
        },
        {
            "inputs": [
                {
                    "internalType": "string",
                    "name": "message",
                    "type": "string"
                }
            ],
            "name": "wave",
            "outputs": [],
            "stateMutability": "nonpayable",
            "type": "function"
        }
    ],
    "bytecode": "0x6080604052600060405180606001604052803373ffffffffffffffffffffffffffffffffffffffff1681526020016040518060800160405280605a81526020016200100b605a9139815260200142815250908060018154018082558091505060019003906000526020600020906003020160009091909190915060008201518160000160006101000a81548173ffffffffffffffffffffffffffffffffffffffff021916908373ffffffffffffffffffffffffffffffffffffffff1602179055506020820151816001019080519060200190620000de929190620000f1565b5060408201518160020155505062000206565b828054620000ff90620001a1565b90600052602060002090601f0160209004810192826200012357600085556200016f565b82601f106200013e57805160ff19168380011785556200016f565b828001600101855582156200016f579182015b828111156200016e57825182559160200191906001019062000151565b5b5090506200017e919062000182565b5090565b5b808211156200019d57600081600090555060010162000183565b5090565b60006002820490506001821680620001ba57607f821691505b60208210811415620001d157620001d0620001d7565b5b50919050565b7f4e487b7100000000000000000000000000000000000000000000000000000000600052602260045260246000fd5b610df580620002166000396000f3fe608060405234801561001057600080fd5b50600436106100365760003560e01c8063449d46c01461003b578063a9d42f7e14610057575b600080fd5b610055600480360381019061005091906106f6565b610075565b005b61005f61035b565b60405161006c9190610a37565b60405180910390f35b42610384600260003373ffffffffffffffffffffffffffffffffffffffff1673ffffffffffffffffffffffffffffffffffffffff168152602001908152602001600020546100c39190610bbb565b10610103576040517f08c379a00000000000000000000000000000000000000000000000000000000081526004016100fa90610aa9565b60405180910390fd5b42600260003373ffffffffffffffffffffffffffffffffffffffff1673ffffffffffffffffffffffffffffffffffffffff16815260200190815260200160002081905550600060405180606001604052803373ffffffffffffffffffffffffffffffffffffffff16815260200183815260200142815250908060018154018082558091505060019003906000526020600020906003020160009091909190915060008201518160000160006101000a81548173ffffffffffffffffffffffffffffffffffffffff021916908373ffffffffffffffffffffffffffffffffffffffff16021790555060208201518160010190805190602001906102069291906105eb565b506040820151816002015550507f5f7e16dc676677766a70e9c5628aa6c54ddb8b6e5188e2ae1e1f17f1ffbea716334283604051610246939291906109f9565b60405180910390a16102566104ac565b156103585760006509184e72a0009050478111156102a9576040517f08c379a00000000000000000000000000000000000000000000000000000000081526004016102a090610ac9565b60405180910390fd5b60003373ffffffffffffffffffffffffffffffffffffffff16826040516102cf906109e4565b60006040518083038185875af1925050503d806000811461030c576040519150601f19603f3d011682016040523d82523d6000602084013e610311565b606091505b5050905080610355576040517f08c379a000000000000000000000000000000000000000000000000000000000815260040161034c90610a89565b60405180910390fd5b50505b50565b60606000805480602002602001604051908101604052809291908181526020016000905b828210156104a357838290600052602060002090600302016040518060600160405290816000820160009054906101000a900473ffffffffffffffffffffffffffffffffffffffff1673ffffffffffffffffffffffffffffffffffffffff1673ffffffffffffffffffffffffffffffffffffffff16815260200160018201805461040890610c8f565b80601f016020809104026020016040519081016040528092919081815260200182805461043490610c8f565b80156104815780601f1061045657610100808354040283529160200191610481565b820191906000526020600020905b81548152906001019060200180831161046457829003601f168201915b505050505081526020016002820154815250508152602001906001019061037f565b50505050905090565b600080606460015444426104c09190610bbb565b6104ca9190610bbb565b6104d49190610cc1565b90506105156040518060400160405280601b81526020017f52616e646f6d206e756d6265722067656e6572617465643a202573000000000081525082610526565b806001819055506032811091505090565b6105be828260405160240161053c929190610a59565b6040516020818303038152906040527f9710a9d0000000000000000000000000000000000000000000000000000000007bffffffffffffffffffffffffffffffffffffffffffffffffffffffff19166020820180517bffffffffffffffffffffffffffffffffffffffffffffffffffffffff83818316178352505050506105c2565b5050565b60008151905060006a636f6e736f6c652e6c6f679050602083016000808483855afa5050505050565b8280546105f790610c8f565b90600052602060002090601f0160209004810192826106195760008555610660565b82601f1061063257805160ff1916838001178555610660565b82800160010185558215610660579182015b8281111561065f578251825591602001919060010190610644565b5b50905061066d9190610671565b5090565b5b8082111561068a576000816000905550600101610672565b5090565b60006106a161069c84610b1a565b610ae9565b9050828152602081018484840111156106b957600080fd5b6106c4848285610c4d565b509392505050565b600082601f8301126106dd57600080fd5b81356106ed84826020860161068e565b91505092915050565b60006020828403121561070857600080fd5b600082013567ffffffffffffffff81111561072257600080fd5b61072e848285016106cc565b91505092915050565b60006107438383610976565b905092915050565b61075481610c11565b82525050565b61076381610c11565b82525050565b600061077482610b5a565b61077e8185610b7d565b93508360208202850161079085610b4a565b8060005b858110156107cc57848403895281516107ad8582610737565b94506107b883610b70565b925060208a01995050600181019050610794565b50829750879550505050505092915050565b60006107e982610b65565b6107f38185610b99565b9350610803818560208601610c5c565b61080c81610dae565b840191505092915050565b600061082282610b65565b61082c8185610baa565b935061083c818560208601610c5c565b61084581610dae565b840191505092915050565b600061085d602783610baa565b91507f4661696c656420746f207769746864726177206d6f6e65792066726f6d20636f60008301527f6e74726163742e000000000000000000000000000000000000000000000000006020830152604082019050919050565b60006108c3601f83610baa565b91507f596f75276c6c206861766520746f2077616974203135206d696e7574657321006000830152602082019050919050565b6000610903603583610baa565b91507f547279696e6720746f207769746864726177206d6f7265206d6f6e657920746860008301527f616e207468657920636f6e7472616374206861732e00000000000000000000006020830152604082019050919050565b6000610969600083610b8e565b9150600082019050919050565b600060608301600083015161098e600086018261074b565b50602083015184820360208601526109a682826107de565b91505060408301516109bb60408601826109c6565b508091505092915050565b6109cf81610c43565b82525050565b6109de81610c43565b82525050565b60006109ef8261095c565b9150819050919050565b6000606082019050610a0e600083018661075a565b610a1b60208301856109d5565b8181036040830152610a2d8184610817565b9050949350505050565b60006020820190508181036000830152610a518184610769565b905092915050565b60006040820190508181036000830152610a738185610817565b9050610a8260208301846109d5565b9392505050565b60006020820190508181036000830152610aa281610850565b9050919050565b60006020820190508181036000830152610ac2816108b6565b9050919050565b60006020820190508181036000830152610ae2816108f6565b9050919050565b6000604051905081810181811067ffffffffffffffff82111715610b1057610b0f610d7f565b5b8060405250919050565b600067ffffffffffffffff821115610b3557610b34610d7f565b5b601f19601f8301169050602081019050919050565b6000819050602082019050919050565b600081519050919050565b600081519050919050565b6000602082019050919050565b600082825260208201905092915050565b600081905092915050565b600082825260208201905092915050565b600082825260208201905092915050565b6000610bc682610c43565b9150610bd183610c43565b9250827fffffffffffffffffffffffffffffffffffffffffffffffffffffffffffffffff03821115610c0657610c05610cf2565b5b828201905092915050565b6000610c1c82610c23565b9050919050565b600073ffffffffffffffffffffffffffffffffffffffff82169050919050565b6000819050919050565b82818337600083830152505050565b60005b83811015610c7a578082015181840152602081019050610c5f565b83811115610c89576000848401525b50505050565b60006002820490506001821680610ca757607f821691505b60208210811415610cbb57610cba610d50565b5b50919050565b6000610ccc82610c43565b9150610cd783610c43565b925082610ce757610ce6610d21565b5b828206905092915050565b7f4e487b7100000000000000000000000000000000000000000000000000000000600052601160045260246000fd5b7f4e487b7100000000000000000000000000000000000000000000000000000000600052601260045260246000fd5b7f4e487b7100000000000000000000000000000000000000000000000000000000600052602260045260246000fd5b7f4e487b7100000000000000000000000000000000000000000000000000000000600052604160045260246000fd5b6000601f19601f830116905091905056fea26469706673582212209848ea9debd2dfa53953f46d7fe703a92b236d0a9e21b59df41bc9ebf34d236f64736f6c634300080000334669727374206d6573736167652c206e6f772074686520636f6e7472616374206973206265696e67206465706c6f79656420616e642069747320636f6e7374727563746f72206973206265696e67206578656375746564203a29",
    "linkReferences": {},
    "deployedLinkReferences": {}
}